{
    "contractName": "minter",
    "abi": [
        {
            "inputs": [
                {
                    "internalType": "contract paradox",
                    "name": "p",
                    "type": "address"
                }
            ],
            "stateMutability": "nonpayable",
            "type": "constructor"
        },
        {
            "inputs": [
                {
                    "internalType": "uint256",
                    "name": "levelIndex",
                    "type": "uint256"
                },
                {
                    "internalType": "bytes32",
                    "name": "guess",
                    "type": "bytes32"
                },
                {
                    "internalType": "uint256",
                    "name": "quantity",
                    "type": "uint256"
                }
            ],
            "name": "mint",
            "outputs": [
                {
                    "internalType": "bool",
                    "name": "",
                    "type": "bool"
                }
            ],
            "stateMutability": "nonpayable",
            "type": "function"
        },
        {
            "inputs": [],
            "name": "paradoxAddress",
            "outputs": [
                {
                    "internalType": "contract paradox",
                    "name": "",
                    "type": "address"
                }
            ],
            "stateMutability": "view",
            "type": "function"
        }
    ],
    "bytecode": "608060405234801561001057600080fd5b5060405161029f38038061029f83398101604081905261002f91610054565b600080546001600160a01b0319166001600160a01b0392909216919091179055610084565b60006020828403121561006657600080fd5b81516001600160a01b038116811461007d57600080fd5b9392505050565b61020c806100936000396000f3fe608060405234801561001057600080fd5b50600436106100365760003560e01c80630fe7fa331461003b5780636fa136991461006b575b600080fd5b60005461004e906001600160a01b031681565b6040516001600160a01b0390911681526020015b60405180910390f35b61007e610079366004610155565b61008e565b6040519015158152602001610062565b60008054604051636fa1369960e01b81526004810186905260248101859052604481018490526001600160a01b0390911690636fa1369990606401600060405180830381600087803b1580156100e357600080fd5b505af19250505080156100f4575060015b61014b573d808015610122576040519150601f19603f3d011682016040523d82523d6000602084013e610127565b606091505b508060405162461bcd60e51b81526004016101429190610181565b60405180910390fd5b5060019392505050565b60008060006060848603121561016a57600080fd5b505081359360208301359350604090920135919050565b600060208083528351808285015260005b818110156101ae57858101830151858201604001528201610192565b818111156101c0576000604083870101525b50601f01601f191692909201604001939250505056fea26469706673582212204c61b44fb94160485433cfbf485808dc1088c98d9ba07b6767754265bbc582e664736f6c634300080b0033",
    "sourcePath": "/Users/binnyarora/projects/solidity/paradox-nft/ethereum/contracts/Minter.sol",
    "compiler": {
        "name": "solc",
        "version": "0.8.11+commit.d7f03943"
    },
    "functionHashes": {
        "mint(uint256,bytes32,uint256)": "6fa13699",
        "paradoxAddress()": "0fe7fa33"
    },
    "gasEstimates": {
        "creation": {
            "codeDepositCost": "104800",
            "executionCost": "infinite",
            "totalCost": "infinite"
        },
        "external": {
            "mint(uint256,bytes32,uint256)": "infinite",
            "paradoxAddress()": "2304"
        }
    }
}