{
    "contractName": "paradox",
    "abi": [
        {
            "inputs": [
                {
                    "internalType": "string",
                    "name": "uri",
                    "type": "string"
                },
                {
                    "internalType": "uint256",
                    "name": "_totalItems",
                    "type": "uint256"
                },
                {
                    "internalType": "uint256",
                    "name": "_itemsPerLevel",
                    "type": "uint256"
                },
                {
                    "internalType": "uint256",
                    "name": "_maxPurchasesWithoutAnswerPerLevel",
                    "type": "uint256"
                }
            ],
            "stateMutability": "nonpayable",
            "type": "constructor"
        },
        {
            "anonymous": false,
            "inputs": [
                {
                    "indexed": true,
                    "internalType": "address",
                    "name": "owner",
                    "type": "address"
                },
                {
                    "indexed": true,
                    "internalType": "address",
                    "name": "approved",
                    "type": "address"
                },
                {
                    "indexed": true,
                    "internalType": "uint256",
                    "name": "tokenId",
                    "type": "uint256"
                }
            ],
            "name": "Approval",
            "type": "event"
        },
        {
            "anonymous": false,
            "inputs": [
                {
                    "indexed": true,
                    "internalType": "address",
                    "name": "owner",
                    "type": "address"
                },
                {
                    "indexed": true,
                    "internalType": "address",
                    "name": "operator",
                    "type": "address"
                },
                {
                    "indexed": false,
                    "internalType": "bool",
                    "name": "approved",
                    "type": "bool"
                }
            ],
            "name": "ApprovalForAll",
            "type": "event"
        },
        {
            "anonymous": false,
            "inputs": [
                {
                    "indexed": true,
                    "internalType": "address",
                    "name": "previousOwner",
                    "type": "address"
                },
                {
                    "indexed": true,
                    "internalType": "address",
                    "name": "newOwner",
                    "type": "address"
                }
            ],
            "name": "OwnershipTransferred",
            "type": "event"
        },
        {
            "anonymous": false,
            "inputs": [
                {
                    "indexed": true,
                    "internalType": "address",
                    "name": "from",
                    "type": "address"
                },
                {
                    "indexed": true,
                    "internalType": "address",
                    "name": "to",
                    "type": "address"
                },
                {
                    "indexed": true,
                    "internalType": "uint256",
                    "name": "tokenId",
                    "type": "uint256"
                }
            ],
            "name": "Transfer",
            "type": "event"
        },
        {
            "inputs": [],
            "name": "activeLevel",
            "outputs": [
                {
                    "internalType": "uint256",
                    "name": "",
                    "type": "uint256"
                }
            ],
            "stateMutability": "view",
            "type": "function"
        },
        {
            "inputs": [
                {
                    "internalType": "address",
                    "name": "to",
                    "type": "address"
                },
                {
                    "internalType": "uint256",
                    "name": "tokenId",
                    "type": "uint256"
                }
            ],
            "name": "approve",
            "outputs": [],
            "stateMutability": "nonpayable",
            "type": "function"
        },
        {
            "inputs": [
                {
                    "internalType": "address",
                    "name": "owner",
                    "type": "address"
                }
            ],
            "name": "balanceOf",
            "outputs": [
                {
                    "internalType": "uint256",
                    "name": "",
                    "type": "uint256"
                }
            ],
            "stateMutability": "view",
            "type": "function"
        },
        {
            "inputs": [],
            "name": "baseURI",
            "outputs": [
                {
                    "internalType": "string",
                    "name": "",
                    "type": "string"
                }
            ],
            "stateMutability": "view",
            "type": "function"
        },
        {
            "inputs": [
                {
                    "internalType": "address",
                    "name": "account",
                    "type": "address"
                },
                {
                    "internalType": "bool",
                    "name": "status",
                    "type": "bool"
                }
            ],
            "name": "changeAdminStatus",
            "outputs": [],
            "stateMutability": "nonpayable",
            "type": "function"
        },
        {
            "inputs": [
                {
                    "internalType": "uint256",
                    "name": "levelIndex",
                    "type": "uint256"
                },
                {
                    "internalType": "bytes32",
                    "name": "guess",
                    "type": "bytes32"
                }
            ],
            "name": "checkAnswer",
            "outputs": [
                {
                    "internalType": "bool",
                    "name": "",
                    "type": "bool"
                }
            ],
            "stateMutability": "view",
            "type": "function"
        },
        {
            "inputs": [
                {
                    "internalType": "string",
                    "name": "imageURL",
                    "type": "string"
                },
                {
                    "internalType": "string",
                    "name": "answerHash",
                    "type": "string"
                }
            ],
            "name": "createLevel",
            "outputs": [],
            "stateMutability": "nonpayable",
            "type": "function"
        },
        {
            "inputs": [],
            "name": "getActiveLevel",
            "outputs": [
                {
                    "internalType": "uint256",
                    "name": "",
                    "type": "uint256"
                }
            ],
            "stateMutability": "view",
            "type": "function"
        },
        {
            "inputs": [
                {
                    "internalType": "uint256",
                    "name": "tokenId",
                    "type": "uint256"
                }
            ],
            "name": "getApproved",
            "outputs": [
                {
                    "internalType": "address",
                    "name": "",
                    "type": "address"
                }
            ],
            "stateMutability": "view",
            "type": "function"
        },
        {
            "inputs": [
                {
                    "internalType": "address",
                    "name": "account",
                    "type": "address"
                }
            ],
            "name": "isAdmin",
            "outputs": [
                {
                    "internalType": "bool",
                    "name": "",
                    "type": "bool"
                }
            ],
            "stateMutability": "view",
            "type": "function"
        },
        {
            "inputs": [
                {
                    "internalType": "address",
                    "name": "owner",
                    "type": "address"
                },
                {
                    "internalType": "address",
                    "name": "operator",
                    "type": "address"
                }
            ],
            "name": "isApprovedForAll",
            "outputs": [
                {
                    "internalType": "bool",
                    "name": "",
                    "type": "bool"
                }
            ],
            "stateMutability": "view",
            "type": "function"
        },
        {
            "inputs": [],
            "name": "itemsPerLevel",
            "outputs": [
                {
                    "internalType": "uint256",
                    "name": "",
                    "type": "uint256"
                }
            ],
            "stateMutability": "view",
            "type": "function"
        },
        {
            "inputs": [
                {
                    "internalType": "uint256",
                    "name": "",
                    "type": "uint256"
                }
            ],
            "name": "levels",
            "outputs": [
                {
                    "internalType": "uint256",
                    "name": "id",
                    "type": "uint256"
                },
                {
                    "internalType": "uint256",
                    "name": "mintsSoFar",
                    "type": "uint256"
                },
                {
                    "internalType": "uint256",
                    "name": "mintsWithoutAnswer",
                    "type": "uint256"
                },
                {
                    "internalType": "bool",
                    "name": "initialized",
                    "type": "bool"
                },
                {
                    "internalType": "string",
                    "name": "imageURL",
                    "type": "string"
                }
            ],
            "stateMutability": "view",
            "type": "function"
        },
        {
            "inputs": [],
            "name": "levelsCount",
            "outputs": [
                {
                    "internalType": "uint256",
                    "name": "",
                    "type": "uint256"
                }
            ],
            "stateMutability": "view",
            "type": "function"
        },
        {
            "inputs": [],
            "name": "maxPricePerItem",
            "outputs": [
                {
                    "internalType": "uint256",
                    "name": "",
                    "type": "uint256"
                }
            ],
            "stateMutability": "view",
            "type": "function"
        },
        {
            "inputs": [],
            "name": "maxPurchasePerLevelPerUser",
            "outputs": [
                {
                    "internalType": "uint256",
                    "name": "",
                    "type": "uint256"
                }
            ],
            "stateMutability": "view",
            "type": "function"
        },
        {
            "inputs": [],
            "name": "maxPurchasesWithoutAnswerPerLevel",
            "outputs": [
                {
                    "internalType": "uint256",
                    "name": "",
                    "type": "uint256"
                }
            ],
            "stateMutability": "view",
            "type": "function"
        },
        {
            "inputs": [
                {
                    "internalType": "uint256",
                    "name": "levelIndex",
                    "type": "uint256"
                },
                {
                    "internalType": "bytes32",
                    "name": "guess",
                    "type": "bytes32"
                },
                {
                    "internalType": "uint256",
                    "name": "quantity",
                    "type": "uint256"
                }
            ],
            "name": "mint",
            "outputs": [],
            "stateMutability": "payable",
            "type": "function"
        },
        {
            "inputs": [],
            "name": "name",
            "outputs": [
                {
                    "internalType": "string",
                    "name": "",
                    "type": "string"
                }
            ],
            "stateMutability": "view",
            "type": "function"
        },
        {
            "inputs": [],
            "name": "owner",
            "outputs": [
                {
                    "internalType": "address",
                    "name": "",
                    "type": "address"
                }
            ],
            "stateMutability": "view",
            "type": "function"
        },
        {
            "inputs": [
                {
                    "internalType": "uint256",
                    "name": "tokenId",
                    "type": "uint256"
                }
            ],
            "name": "ownerOf",
            "outputs": [
                {
                    "internalType": "address",
                    "name": "",
                    "type": "address"
                }
            ],
            "stateMutability": "view",
            "type": "function"
        },
        {
            "inputs": [],
            "name": "paused",
            "outputs": [
                {
                    "internalType": "bool",
                    "name": "",
                    "type": "bool"
                }
            ],
            "stateMutability": "view",
            "type": "function"
        },
        {
            "inputs": [],
            "name": "pricePerItem",
            "outputs": [
                {
                    "internalType": "uint256",
                    "name": "",
                    "type": "uint256"
                }
            ],
            "stateMutability": "view",
            "type": "function"
        },
        {
            "inputs": [],
            "name": "renounceOwnership",
            "outputs": [],
            "stateMutability": "nonpayable",
            "type": "function"
        },
        {
            "inputs": [
                {
                    "internalType": "address",
                    "name": "from",
                    "type": "address"
                },
                {
                    "internalType": "address",
                    "name": "to",
                    "type": "address"
                },
                {
                    "internalType": "uint256",
                    "name": "tokenId",
                    "type": "uint256"
                }
            ],
            "name": "safeTransferFrom",
            "outputs": [],
            "stateMutability": "nonpayable",
            "type": "function"
        },
        {
            "inputs": [
                {
                    "internalType": "address",
                    "name": "from",
                    "type": "address"
                },
                {
                    "internalType": "address",
                    "name": "to",
                    "type": "address"
                },
                {
                    "internalType": "uint256",
                    "name": "tokenId",
                    "type": "uint256"
                },
                {
                    "internalType": "bytes",
                    "name": "_data",
                    "type": "bytes"
                }
            ],
            "name": "safeTransferFrom",
            "outputs": [],
            "stateMutability": "nonpayable",
            "type": "function"
        },
        {
            "inputs": [
                {
                    "internalType": "uint256",
                    "name": "levelIndex",
                    "type": "uint256"
                }
            ],
            "name": "setActiveLevel",
            "outputs": [],
            "stateMutability": "nonpayable",
            "type": "function"
        },
        {
            "inputs": [
                {
                    "internalType": "address",
                    "name": "operator",
                    "type": "address"
                },
                {
                    "internalType": "bool",
                    "name": "approved",
                    "type": "bool"
                }
            ],
            "name": "setApprovalForAll",
            "outputs": [],
            "stateMutability": "nonpayable",
            "type": "function"
        },
        {
            "inputs": [
                {
                    "internalType": "string",
                    "name": "uri",
                    "type": "string"
                }
            ],
            "name": "setBaseURI",
            "outputs": [],
            "stateMutability": "nonpayable",
            "type": "function"
        },
        {
            "inputs": [
                {
                    "internalType": "bool",
                    "name": "state",
                    "type": "bool"
                }
            ],
            "name": "setPaused",
            "outputs": [],
            "stateMutability": "nonpayable",
            "type": "function"
        },
        {
            "inputs": [
                {
                    "internalType": "bytes4",
                    "name": "interfaceId",
                    "type": "bytes4"
                }
            ],
            "name": "supportsInterface",
            "outputs": [
                {
                    "internalType": "bool",
                    "name": "",
                    "type": "bool"
                }
            ],
            "stateMutability": "view",
            "type": "function"
        },
        {
            "inputs": [],
            "name": "symbol",
            "outputs": [
                {
                    "internalType": "string",
                    "name": "",
                    "type": "string"
                }
            ],
            "stateMutability": "view",
            "type": "function"
        },
        {
            "inputs": [
                {
                    "internalType": "uint256",
                    "name": "index",
                    "type": "uint256"
                }
            ],
            "name": "tokenByIndex",
            "outputs": [
                {
                    "internalType": "uint256",
                    "name": "",
                    "type": "uint256"
                }
            ],
            "stateMutability": "view",
            "type": "function"
        },
        {
            "inputs": [
                {
                    "internalType": "address",
                    "name": "owner",
                    "type": "address"
                },
                {
                    "internalType": "uint256",
                    "name": "index",
                    "type": "uint256"
                }
            ],
            "name": "tokenOfOwnerByIndex",
            "outputs": [
                {
                    "internalType": "uint256",
                    "name": "",
                    "type": "uint256"
                }
            ],
            "stateMutability": "view",
            "type": "function"
        },
        {
            "inputs": [
                {
                    "internalType": "uint256",
                    "name": "tokenId",
                    "type": "uint256"
                }
            ],
            "name": "tokenURI",
            "outputs": [
                {
                    "internalType": "string",
                    "name": "",
                    "type": "string"
                }
            ],
            "stateMutability": "view",
            "type": "function"
        },
        {
            "inputs": [],
            "name": "totalItems",
            "outputs": [
                {
                    "internalType": "uint256",
                    "name": "",
                    "type": "uint256"
                }
            ],
            "stateMutability": "view",
            "type": "function"
        },
        {
            "inputs": [],
            "name": "totalSupply",
            "outputs": [
                {
                    "internalType": "uint256",
                    "name": "",
                    "type": "uint256"
                }
            ],
            "stateMutability": "view",
            "type": "function"
        },
        {
            "inputs": [
                {
                    "internalType": "address",
                    "name": "from",
                    "type": "address"
                },
                {
                    "internalType": "address",
                    "name": "to",
                    "type": "address"
                },
                {
                    "internalType": "uint256",
                    "name": "tokenId",
                    "type": "uint256"
                }
            ],
            "name": "transferFrom",
            "outputs": [],
            "stateMutability": "nonpayable",
            "type": "function"
        },
        {
            "inputs": [
                {
                    "internalType": "address",
                    "name": "newOwner",
                    "type": "address"
                }
            ],
            "name": "transferOwnership",
            "outputs": [],
            "stateMutability": "nonpayable",
            "type": "function"
        },
        {
            "inputs": [
                {
                    "internalType": "uint256",
                    "name": "levelIndex",
                    "type": "uint256"
                },
                {
                    "internalType": "bool",
                    "name": "initialized",
                    "type": "bool"
                },
                {
                    "internalType": "string",
                    "name": "imageURL",
                    "type": "string"
                }
            ],
            "name": "updateLevel",
            "outputs": [],
            "stateMutability": "nonpayable",
            "type": "function"
        },
        {
            "inputs": [],
            "name": "withdraw",
            "outputs": [],
            "stateMutability": "nonpayable",
            "type": "function"
        }
    ],
    "bytecode": "60806040523480156200001157600080fd5b506040516200303a3803806200303a833981016040819052620000349162000264565b6040518060400160405280600581526020016442696e6e7960d81b8152506040518060400160405280600581526020016442494e4e5960d81b815250816001908051906020019062000088929190620001a8565b5080516200009e906002906020840190620001a8565b505050620000bb620000b56200013d60201b60201c565b62000141565b8351620000d090600c906020870190620001a8565b5060088390556009829055600a819055600b8054600160ff199182168117909255336000908152601060209081526040822080549093168417909255600d8054840181559052600e546200012f92909162000193811b62001adb17901c565b600e5550620003c092505050565b3390565b600780546001600160a01b038381166001600160a01b0319831681179093556040519116919082907f8be0079c531659141344cd1fd0a4f28419497f9722a3daafe3b4186f6b6457e090600090a35050565b6000620001a182846200035c565b9392505050565b828054620001b69062000383565b90600052602060002090601f016020900481019282620001da576000855562000225565b82601f10620001f557805160ff191683800117855562000225565b8280016001018555821562000225579182015b828111156200022557825182559160200191906001019062000208565b506200023392915062000237565b5090565b5b8082111562000233576000815560010162000238565b634e487b7160e01b600052604160045260246000fd5b600080600080608085870312156200027b57600080fd5b84516001600160401b03808211156200029357600080fd5b818701915087601f830112620002a857600080fd5b815181811115620002bd57620002bd6200024e565b604051601f8201601f19908116603f01168101908382118183101715620002e857620002e86200024e565b81604052828152602093508a848487010111156200030557600080fd5b600091505b828210156200032957848201840151818301850152908301906200030a565b828211156200033b5760008484830101525b9289015160408a01516060909a0151939b909a509297509195505050505050565b600082198211156200037e57634e487b7160e01b600052601160045260246000fd5b500190565b600181811c908216806200039857607f821691505b60208210811415620003ba57634e487b7160e01b600052602260045260246000fd5b50919050565b612c6a80620003d06000396000f3fe6080604052600436106102465760003560e01c80636346966111610139578063b2596a67116100b6578063d79acc1d1161007a578063d79acc1d1461068d578063dfe13eda146106ad578063e9245a3e146106c2578063e985e9c5146106d7578063eec6c5d714610720578063f2fde38b1461074057600080fd5b8063b2596a67146105ea578063b40e5d921461061b578063b4b3a54214610637578063b88d4fde1461064d578063c87b56dd1461066d57600080fd5b8063715018a6116100fd578063715018a61461056c57806383c6a62b146105815780638da5cb5b1461059757806395d89b41146105b5578063a22cb465146105ca57600080fd5b806363469661146104e45780636352211e146105045780636c0360eb146105245780636fa136991461053957806370a082311461054c57600080fd5b80632f745c59116101c75780634f6ccce71161018b5780634f6ccce71461044a5780635210d65a1461046a57806355c1fa7a1461048a57806355f804b3146104aa5780635c975abb146104ca57600080fd5b80632f745c59146103c4578063305fc577146103e4578063382d9b7d146103fa5780633ccfd60b1461041557806342842e0e1461042a57600080fd5b806316c38b3c1161020e57806316c38b3c1461032057806318160ddd1461034057806323b872dd1461035557806324d7806c146103755780632799276d146103ae57600080fd5b806301ffc9a71461024b57806303bf19fd1461028057806306fdde03146102a4578063081812fc146102c6578063095ea7b3146102fe575b600080fd5b34801561025757600080fd5b5061026b610266366004612467565b610760565b60405190151581526020015b60405180910390f35b34801561028c57600080fd5b5061029660095481565b604051908152602001610277565b3480156102b057600080fd5b506102b96107cd565b60405161027791906124dc565b3480156102d257600080fd5b506102e66102e13660046124ef565b61085f565b6040516001600160a01b039091168152602001610277565b34801561030a57600080fd5b5061031e610319366004612524565b6108ef565b005b34801561032c57600080fd5b5061031e61033b36600461255e565b610a07565b34801561034c57600080fd5b50600054610296565b34801561036157600080fd5b5061031e610370366004612579565b610a44565b34801561038157600080fd5b5061026b6103903660046125b5565b6001600160a01b031660009081526010602052604090205460ff1690565b3480156103ba57600080fd5b5061029660085481565b3480156103d057600080fd5b506102966103df366004612524565b610a4f565b3480156103f057600080fd5b50610296600a5481565b34801561040657600080fd5b5061029666470de4df82000081565b34801561042157600080fd5b5061031e610bac565b34801561043657600080fd5b5061031e610445366004612579565b610c09565b34801561045657600080fd5b506102966104653660046124ef565b610c24565b34801561047657600080fd5b5061031e6104853660046124ef565b610c86565b34801561049657600080fd5b5061031e6104a53660046125d0565b610ce4565b3480156104b657600080fd5b5061031e6104c53660046126af565b610d4c565b3480156104d657600080fd5b50600b5461026b9060ff1681565b3480156104f057600080fd5b5061031e6104ff3660046126e4565b610d89565b34801561051057600080fd5b506102e661051f3660046124ef565b610f2f565b34801561053057600080fd5b506102b9610f41565b61031e610547366004612748565b610fcf565b34801561055857600080fd5b506102966105673660046125b5565b61145a565b34801561057857600080fd5b5061031e6114eb565b34801561058d57600080fd5b50610296600e5481565b3480156105a357600080fd5b506007546001600160a01b03166102e6565b3480156105c157600080fd5b506102b9611521565b3480156105d657600080fd5b5061031e6105e53660046125d0565b611530565b3480156105f657600080fd5b5061060a6106053660046124ef565b6115f5565b604051610277959493929190612774565b34801561062757600080fd5b50610296670de0b6b3a764000081565b34801561064357600080fd5b50610296600f5481565b34801561065957600080fd5b5061031e6106683660046127ac565b6116c6565b34801561067957600080fd5b506102b96106883660046124ef565b6116ff565b34801561069957600080fd5b5061026b6106a8366004612828565b6117cd565b3480156106b957600080fd5b50600f54610296565b3480156106ce57600080fd5b50610296600281565b3480156106e357600080fd5b5061026b6106f236600461284a565b6001600160a01b03918216600090815260066020908152604080832093909416825291909152205460ff1690565b34801561072c57600080fd5b5061031e61073b366004612874565b611954565b34801561074c57600080fd5b5061031e61075b3660046125b5565b611a40565b60006001600160e01b031982166380ac58cd60e01b148061079157506001600160e01b03198216635b5e139f60e01b145b806107ac57506001600160e01b0319821663780e9d6360e01b145b806107c757506301ffc9a760e01b6001600160e01b03198316145b92915050565b6060600180546107dc906128cb565b80601f0160208091040260200160405190810160405280929190818152602001828054610808906128cb565b80156108555780601f1061082a57610100808354040283529160200191610855565b820191906000526020600020905b81548152906001019060200180831161083857829003601f168201915b5050505050905090565b600061086c826000541190565b6108d35760405162461bcd60e51b815260206004820152602d60248201527f455243373231413a20617070726f76656420717565727920666f72206e6f6e6560448201526c3c34b9ba32b73a103a37b5b2b760991b60648201526084015b60405180910390fd5b506000908152600560205260409020546001600160a01b031690565b60006108fa82610f2f565b9050806001600160a01b0316836001600160a01b031614156109695760405162461bcd60e51b815260206004820152602260248201527f455243373231413a20617070726f76616c20746f2063757272656e74206f776e60448201526132b960f11b60648201526084016108ca565b336001600160a01b0382161480610985575061098581336106f2565b6109f75760405162461bcd60e51b815260206004820152603960248201527f455243373231413a20617070726f76652063616c6c6572206973206e6f74206f60448201527f776e6572206e6f7220617070726f76656420666f7220616c6c0000000000000060648201526084016108ca565b610a02838383611ae7565b505050565b6007546001600160a01b03163314610a315760405162461bcd60e51b81526004016108ca90612906565b600b805460ff1916911515919091179055565b610a02838383611b43565b6000610a5a8361145a565b8210610ab35760405162461bcd60e51b815260206004820152602260248201527f455243373231413a206f776e657220696e646578206f7574206f6620626f756e604482015261647360f01b60648201526084016108ca565b600080549080805b83811015610b4c576000818152600360209081526040918290208251808401909352546001600160a01b038116808452600160a01b90910467ffffffffffffffff169183019190915215610b0e57805192505b876001600160a01b0316836001600160a01b03161415610b435786841415610b3c575093506107c792505050565b6001909301925b50600101610abb565b5060405162461bcd60e51b815260206004820152602e60248201527f455243373231413a20756e61626c6520746f2067657420746f6b656e206f662060448201526d0deeedccae440c4f240d2dcc8caf60931b60648201526084016108ca565b6007546001600160a01b03163314610bd65760405162461bcd60e51b81526004016108ca90612906565b6040514790339082156108fc029083906000818181858888f19350505050158015610c05573d6000803e3d6000fd5b5050565b610a02838383604051806020016040528060008152506116c6565b600080548210610c825760405162461bcd60e51b815260206004820152602360248201527f455243373231413a20676c6f62616c20696e646578206f7574206f6620626f756044820152626e647360e81b60648201526084016108ca565b5090565b80600081118015610c985750600d5481105b610cb45760405162461bcd60e51b81526004016108ca9061293b565b6007546001600160a01b03163314610cde5760405162461bcd60e51b81526004016108ca90612906565b50600f55565b6007546001600160a01b03163314610d0e5760405162461bcd60e51b81526004016108ca90612906565b6001600160a01b038216610d2157600080fd5b6001600160a01b03919091166000908152601060205260409020805460ff1916911515919091179055565b6007546001600160a01b03163314610d765760405162461bcd60e51b81526004016108ca90612906565b8051610c0590600c9060208401906123c1565b600b5460ff16610dab5760405162461bcd60e51b81526004016108ca90612968565b3380610db657600080fd5b3360009081526010602052604090205460ff16610de55760405162461bcd60e51b81526004016108ca906129b8565b8251610e335760405162461bcd60e51b815260206004820152601960248201527f496d6167652075726c2063616e6e6f7420626520656d7074790000000000000060448201526064016108ca565b8151610e815760405162461bcd60e51b815260206004820152601b60248201527f416e7377657220686173682063616e6e6f7420626520656d707479000000000060448201526064016108ca565b600d80546001818101808455600093845260069092027fd7b6990105719101dabeb77144f2a3385c8033acd3af97e9423a695e81ad1eb5019291610ec59190612a2b565b80835560038301805460ff191660011790558551909150610eef90600584019060208801906123c1565b5060008181526011602090815260409091208551610f0f928701906123c1565b506001600e6000828254610f239190612a42565b90915550505050505050565b6000610f3a82611e28565b5192915050565b600c8054610f4e906128cb565b80601f0160208091040260200160405190810160405280929190818152602001828054610f7a906128cb565b8015610fc75780601f10610f9c57610100808354040283529160200191610fc7565b820191906000526020600020905b815481529060010190602001808311610faa57829003601f168201915b505050505081565b82600081118015610fe15750600d5481105b610ffd5760405162461bcd60e51b81526004016108ca9061293b565b8380600f541461101f5760405162461bcd60e51b81526004016108ca90612a5a565b600b5460ff16156110815760405162461bcd60e51b815260206004820152602660248201527f47616d65206973207061757365642e20506c656173652074727920616761696e604482015265103630ba32b960d11b60648201526084016108ca565b333b156110df5760405162461bcd60e51b815260206004820152602660248201527f436f6e74726163747320617265206e6f7420616c6c6f77656420746f206d696e60448201526574204e46547360d01b60648201526084016108ca565b60005460085481106111335760405162461bcd60e51b815260206004820152601e60248201527f536f7272792c20616c6c204974656d732061726520736f6c64206f75742e000060448201526064016108ca565b6000600d878154811061114857611148612aa0565b60009182526020909120600690910201600381015490915060ff1661119f5760405162461bcd60e51b815260206004820152600d60248201526c155b9adb9bdddb881b195d995b609a1b60448201526064016108ca565b6009548160010154106112065760405162461bcd60e51b815260206004820152602960248201527f416c6c206974656d732068617665206265656e206d696e74656420666f7220746044820152681a1a5cc81b195d995b60ba1b60648201526084016108ca565b60095460018201546112189087611adb565b111561127c5760405162461bcd60e51b815260206004820152602d60248201527f4e6f7420656e6f756768206d696e746561626c65206974656d73206c6566742060448201526c1a5b881d1a1a5cc81b195d995b609a1b60648201526084016108ca565b6000851180156112a957503360009081526004820160205260409020546002906112a69087611adb565b11155b6113115760405162461bcd60e51b815260206004820152603360248201527f4d6178207075726368617365206c696d697420666f72207573657220726561636044820152723432b2103337b9103a3434b9903632bb32b61760691b60648201526084016108ca565b600061132586670de0b6b3a7640000611eff565b3410801591506113b757600a5460028301546113419088611adb565b111561139e5760405162461bcd60e51b815260206004820152602660248201527f45786365656465642070757263686173652d776974686f75742d616e73776572604482015265081b1a5b5a5d60d21b60648201526084016108ca565b60028201546113ad9087611adb565b6002830155611401565b6113c2888888611f0b565b6114015760405162461bcd60e51b815260206004820152601060248201526f24b731b7b93932b1ba1030b739bbb2b960811b60448201526064016108ca565b60018201546114109087611adb565b60018301553360009081526004830160205260409020546114319087611adb565b3360008181526004850160205260409020919091556114509087611f7f565b5050505050505050565b60006001600160a01b0382166114c65760405162461bcd60e51b815260206004820152602b60248201527f455243373231413a2062616c616e636520717565727920666f7220746865207a60448201526a65726f206164647265737360a81b60648201526084016108ca565b506001600160a01b03166000908152600460205260409020546001600160801b031690565b6007546001600160a01b031633146115155760405162461bcd60e51b81526004016108ca90612906565b61151f6000611f99565b565b6060600280546107dc906128cb565b6001600160a01b0382163314156115895760405162461bcd60e51b815260206004820152601a60248201527f455243373231413a20617070726f766520746f2063616c6c657200000000000060448201526064016108ca565b3360008181526006602090815260408083206001600160a01b03871680855290835292819020805460ff191686151590811790915590519081529192917f17307eab39ab6107e8899845ad3d59bd9653f200f220920489ca2b5937696c31910160405180910390a35050565b600d818154811061160557600080fd5b6000918252602090912060069091020180546001820154600283015460038401546005850180549496509294919360ff9091169290611643906128cb565b80601f016020809104026020016040519081016040528092919081815260200182805461166f906128cb565b80156116bc5780601f10611691576101008083540402835291602001916116bc565b820191906000526020600020905b81548152906001019060200180831161169f57829003601f168201915b5050505050905085565b6116d1848484611b43565b6116dd84848484611feb565b6116f95760405162461bcd60e51b81526004016108ca90612ab6565b50505050565b606061170c826000541190565b6117705760405162461bcd60e51b815260206004820152602f60248201527f4552433732314d657461646174613a2055524920717565727920666f72206e6f60448201526e3732bc34b9ba32b73a103a37b5b2b760891b60648201526084016108ca565b600061177a6120e9565b905080516000141561179b57604051806020016040528060008152506117c6565b806117a5846120f8565b6040516020016117b6929190612b09565b6040516020818303038152906040525b9392505050565b6000826000811180156117e15750600d5481105b6117fd5760405162461bcd60e51b81526004016108ca9061293b565b8380600f541461181f5760405162461bcd60e51b81526004016108ca90612a5a565b600b5460ff161561182f57600080fd5b60008581526011602052604081208054611848906128cb565b80601f0160208091040260200160405190810160405280929190818152602001828054611874906128cb565b80156118c15780601f10611896576101008083540402835291602001916118c1565b820191906000526020600020905b8154815290600101906020018083116118a457829003601f168201915b505050505090506118d181511590565b1561191e5760405162461bcd60e51b815260206004820152601d60248201527f416e73776572206e6f742073657420666f722074686973206c6576656c00000060448201526064016108ca565b8033604051602001611931929190612b38565b604051602081830303815290604052805190602001208514935050505092915050565b600b5460ff166119765760405162461bcd60e51b81526004016108ca90612968565b338061198157600080fd5b3360009081526010602052604090205460ff166119b05760405162461bcd60e51b81526004016108ca906129b8565b836000811180156119c25750600d5481105b6119de5760405162461bcd60e51b81526004016108ca9061293b565b82516119e957600080fd5b6000600d86815481106119fe576119fe612aa0565b60009182526020918290206006919091020160038101805460ff19168815151790558551909250611a37916005840191908701906123c1565b50505050505050565b6007546001600160a01b03163314611a6a5760405162461bcd60e51b81526004016108ca90612906565b6001600160a01b038116611acf5760405162461bcd60e51b815260206004820152602660248201527f4f776e61626c653a206e6577206f776e657220697320746865207a65726f206160448201526564647265737360d01b60648201526084016108ca565b611ad881611f99565b50565b60006117c68284612a42565b60008281526005602052604080822080546001600160a01b0319166001600160a01b0387811691821790925591518593918516917f8c5be1e5ebec7d5bd14f71427d1e84f3dd0314c0f7b2291e5b200ac8c7c3b92591a4505050565b6000611b4e82611e28565b80519091506000906001600160a01b0316336001600160a01b03161480611b85575033611b7a8461085f565b6001600160a01b0316145b80611b9757508151611b9790336106f2565b905080611c015760405162461bcd60e51b815260206004820152603260248201527f455243373231413a207472616e736665722063616c6c6572206973206e6f74206044820152711bdddb995c881b9bdc88185c1c1c9bdd995960721b60648201526084016108ca565b846001600160a01b031682600001516001600160a01b031614611c755760405162461bcd60e51b815260206004820152602660248201527f455243373231413a207472616e736665722066726f6d20696e636f72726563746044820152651037bbb732b960d11b60648201526084016108ca565b6001600160a01b038416611cd95760405162461bcd60e51b815260206004820152602560248201527f455243373231413a207472616e7366657220746f20746865207a65726f206164604482015264647265737360d81b60648201526084016108ca565b611ce96000848460000151611ae7565b6001600160a01b03858116600090815260046020908152604080832080546001600160801b03198082166001600160801b03928316600019018316179092558986168086528386208054938416938316600190810190931693909317909255888552600390935281842080546001600160e01b031916909117600160a01b4267ffffffffffffffff1602179055908601808352912054909116611dde57611d91816000541190565b15611dde578251600082815260036020908152604090912080549186015167ffffffffffffffff16600160a01b026001600160e01b03199092166001600160a01b03909316929092171790555b5082846001600160a01b0316866001600160a01b03167fddf252ad1be2c89b69c2b068fc378daa952ba7f163c4a11628f55a4df523b3ef60405160405180910390a45b5050505050565b6040805180820190915260008082526020820152611e47826000541190565b611ea65760405162461bcd60e51b815260206004820152602a60248201527f455243373231413a206f776e657220717565727920666f72206e6f6e657869736044820152693a32b73a103a37b5b2b760b11b60648201526084016108ca565b815b6000818152600360209081526040918290208251808401909352546001600160a01b038116808452600160a01b90910467ffffffffffffffff169183019190915215611ef5579392505050565b5060001901611ea8565b60006117c68284612b62565b6000611f1e8266470de4df820000611eff565b341015611f6d5760405162461bcd60e51b815260206004820152601e60248201527f496e73756666696369656e74207472616e73616374696f6e2076616c7565000060448201526064016108ca565b611f7784846117cd565b949350505050565b610c058282604051806020016040528060008152506121f6565b600780546001600160a01b038381166001600160a01b0319831681179093556040519116919082907f8be0079c531659141344cd1fd0a4f28419497f9722a3daafe3b4186f6b6457e090600090a35050565b60006001600160a01b0384163b156120de57604051630a85bd0160e11b81526001600160a01b0385169063150b7a029061202f903390899088908890600401612b81565b6020604051808303816000875af192505050801561206a575060408051601f3d908101601f1916820190925261206791810190612bbe565b60015b6120c4573d808015612098576040519150601f19603f3d011682016040523d82523d6000602084013e61209d565b606091505b5080516120bc5760405162461bcd60e51b81526004016108ca90612ab6565b805181602001fd5b6001600160e01b031916630a85bd0160e11b149050611f77565b506001949350505050565b6060600c80546107dc906128cb565b60608161211c5750506040805180820190915260018152600360fc1b602082015290565b8160005b8115612146578061213081612bdb565b915061213f9050600a83612c0c565b9150612120565b60008167ffffffffffffffff81111561216157612161612603565b6040519080825280601f01601f19166020018201604052801561218b576020820181803683370190505b5090505b8415611f77576121a0600183612a2b565b91506121ad600a86612c20565b6121b8906030612a42565b60f81b8183815181106121cd576121cd612aa0565b60200101906001600160f81b031916908160001a9053506121ef600a86612c0c565b945061218f565b610a0283838360016000546001600160a01b0385166122615760405162461bcd60e51b815260206004820152602160248201527f455243373231413a206d696e7420746f20746865207a65726f206164647265736044820152607360f81b60648201526084016108ca565b836122bf5760405162461bcd60e51b815260206004820152602860248201527f455243373231413a207175616e74697479206d75737420626520677265617465604482015267072207468616e20360c41b60648201526084016108ca565b6001600160a01b03851660008181526004602090815260408083208054600160801b6001600160801b031982166001600160801b039283168c01831690811782900483168c01909216021790558483526003909152812080546001600160e01b031916909217600160a01b4267ffffffffffffffff16021790915581905b858110156123b85760405182906001600160a01b038916906000907fddf252ad1be2c89b69c2b068fc378daa952ba7f163c4a11628f55a4df523b3ef908290a483156123ac576123906000888488611feb565b6123ac5760405162461bcd60e51b81526004016108ca90612ab6565b6001918201910161233d565b50600055611e21565b8280546123cd906128cb565b90600052602060002090601f0160209004810192826123ef5760008555612435565b82601f1061240857805160ff1916838001178555612435565b82800160010185558215612435579182015b8281111561243557825182559160200191906001019061241a565b50610c829291505b80821115610c82576000815560010161243d565b6001600160e01b031981168114611ad857600080fd5b60006020828403121561247957600080fd5b81356117c681612451565b60005b8381101561249f578181015183820152602001612487565b838111156116f95750506000910152565b600081518084526124c8816020860160208601612484565b601f01601f19169290920160200192915050565b6020815260006117c660208301846124b0565b60006020828403121561250157600080fd5b5035919050565b80356001600160a01b038116811461251f57600080fd5b919050565b6000806040838503121561253757600080fd5b61254083612508565b946020939093013593505050565b8035801515811461251f57600080fd5b60006020828403121561257057600080fd5b6117c68261254e565b60008060006060848603121561258e57600080fd5b61259784612508565b92506125a560208501612508565b9150604084013590509250925092565b6000602082840312156125c757600080fd5b6117c682612508565b600080604083850312156125e357600080fd5b6125ec83612508565b91506125fa6020840161254e565b90509250929050565b634e487b7160e01b600052604160045260246000fd5b600067ffffffffffffffff8084111561263457612634612603565b604051601f8501601f19908116603f0116810190828211818310171561265c5761265c612603565b8160405280935085815286868601111561267557600080fd5b858560208301376000602087830101525050509392505050565b600082601f8301126126a057600080fd5b6117c683833560208501612619565b6000602082840312156126c157600080fd5b813567ffffffffffffffff8111156126d857600080fd5b611f778482850161268f565b600080604083850312156126f757600080fd5b823567ffffffffffffffff8082111561270f57600080fd5b61271b8683870161268f565b9350602085013591508082111561273157600080fd5b5061273e8582860161268f565b9150509250929050565b60008060006060848603121561275d57600080fd5b505081359360208301359350604090920135919050565b858152846020820152836040820152821515606082015260a0608082015260006127a160a08301846124b0565b979650505050505050565b600080600080608085870312156127c257600080fd5b6127cb85612508565b93506127d960208601612508565b925060408501359150606085013567ffffffffffffffff8111156127fc57600080fd5b8501601f8101871361280d57600080fd5b61281c87823560208401612619565b91505092959194509250565b6000806040838503121561283b57600080fd5b50508035926020909101359150565b6000806040838503121561285d57600080fd5b61286683612508565b91506125fa60208401612508565b60008060006060848603121561288957600080fd5b833592506128996020850161254e565b9150604084013567ffffffffffffffff8111156128b557600080fd5b6128c18682870161268f565b9150509250925092565b600181811c908216806128df57607f821691505b6020821081141561290057634e487b7160e01b600052602260045260246000fd5b50919050565b6020808252818101527f4f776e61626c653a2063616c6c6572206973206e6f7420746865206f776e6572604082015260600190565b602080825260139082015272092dcecc2d8d2c840d8caeccad840d2dcc8caf606b1b604082015260600190565b60208082526030908201527f4d6574686f6420696e766f636174696f6e20726571756972657320746865206760408201526f185b59481d1bc81899481c185d5cd95960821b606082015260800190565b6020808252603c908201527f54686973206163636f756e7420646f6573206e6f742068617665207065726d6960408201527f7373696f6e20746f20706572666f726d207468697320616374696f6e00000000606082015260800190565b634e487b7160e01b600052601160045260246000fd5b600082821015612a3d57612a3d612a15565b500390565b60008219821115612a5557612a55612a15565b500190565b60208082526026908201527f536f7272792c2074686973206c6576656c206973206e6f7420616374697661746040820152651959081e595d60d21b606082015260800190565b634e487b7160e01b600052603260045260246000fd5b60208082526033908201527f455243373231413a207472616e7366657220746f206e6f6e204552433732315260408201527232b1b2b4bb32b91034b6b83632b6b2b73a32b960691b606082015260800190565b60008351612b1b818460208801612484565b835190830190612b2f818360208801612484565b01949350505050565b604081526000612b4b60408301856124b0565b905060018060a01b03831660208301529392505050565b6000816000190483118215151615612b7c57612b7c612a15565b500290565b6001600160a01b0385811682528416602082015260408101839052608060608201819052600090612bb4908301846124b0565b9695505050505050565b600060208284031215612bd057600080fd5b81516117c681612451565b6000600019821415612bef57612bef612a15565b5060010190565b634e487b7160e01b600052601260045260246000fd5b600082612c1b57612c1b612bf6565b500490565b600082612c2f57612c2f612bf6565b50069056fea26469706673582212203ba42749e54234988d42cc595514beb843fde58e2a2501b37628c9387e751ea764736f6c634300080b0033",
    "sourcePath": "/Users/binnyarora/projects/solidity/paradox-nft/ethereum/contracts/paradox.sol",
    "compiler": {
        "name": "solc",
        "version": "0.8.11+commit.d7f03943"
    },
    "functionHashes": {
        "activeLevel()": "b4b3a542",
        "approve(address,uint256)": "095ea7b3",
        "balanceOf(address)": "70a08231",
        "baseURI()": "6c0360eb",
        "changeAdminStatus(address,bool)": "55c1fa7a",
        "checkAnswer(uint256,bytes32)": "d79acc1d",
        "createLevel(string,string)": "63469661",
        "getActiveLevel()": "dfe13eda",
        "getApproved(uint256)": "081812fc",
        "isAdmin(address)": "24d7806c",
        "isApprovedForAll(address,address)": "e985e9c5",
        "itemsPerLevel()": "03bf19fd",
        "levels(uint256)": "b2596a67",
        "levelsCount()": "83c6a62b",
        "maxPricePerItem()": "b40e5d92",
        "maxPurchasePerLevelPerUser()": "e9245a3e",
        "maxPurchasesWithoutAnswerPerLevel()": "305fc577",
        "mint(uint256,bytes32,uint256)": "6fa13699",
        "name()": "06fdde03",
        "owner()": "8da5cb5b",
        "ownerOf(uint256)": "6352211e",
        "paused()": "5c975abb",
        "pricePerItem()": "382d9b7d",
        "renounceOwnership()": "715018a6",
        "safeTransferFrom(address,address,uint256)": "42842e0e",
        "safeTransferFrom(address,address,uint256,bytes)": "b88d4fde",
        "setActiveLevel(uint256)": "5210d65a",
        "setApprovalForAll(address,bool)": "a22cb465",
        "setBaseURI(string)": "55f804b3",
        "setPaused(bool)": "16c38b3c",
        "supportsInterface(bytes4)": "01ffc9a7",
        "symbol()": "95d89b41",
        "tokenByIndex(uint256)": "4f6ccce7",
        "tokenOfOwnerByIndex(address,uint256)": "2f745c59",
        "tokenURI(uint256)": "c87b56dd",
        "totalItems()": "2799276d",
        "totalSupply()": "18160ddd",
        "transferFrom(address,address,uint256)": "23b872dd",
        "transferOwnership(address)": "f2fde38b",
        "updateLevel(uint256,bool,string)": "eec6c5d7",
        "withdraw()": "3ccfd60b"
    },
    "gasEstimates": {
        "creation": {
            "codeDepositCost": "2274000",
            "executionCost": "infinite",
            "totalCost": "infinite"
        },
        "external": {
            "activeLevel()": "2384",
            "approve(address,uint256)": "infinite",
            "balanceOf(address)": "2741",
            "baseURI()": "infinite",
            "changeAdminStatus(address,bool)": "infinite",
            "checkAnswer(uint256,bytes32)": "infinite",
            "createLevel(string,string)": "infinite",
            "getActiveLevel()": "2358",
            "getApproved(uint256)": "4745",
            "isAdmin(address)": "2650",
            "isApprovedForAll(address,address)": "infinite",
            "itemsPerLevel()": "2364",
            "levels(uint256)": "infinite",
            "levelsCount()": "2362",
            "maxPricePerItem()": "262",
            "maxPurchasePerLevelPerUser()": "283",
            "maxPurchasesWithoutAnswerPerLevel()": "2363",
            "mint(uint256,bytes32,uint256)": "infinite",
            "name()": "infinite",
            "owner()": "2420",
            "ownerOf(uint256)": "infinite",
            "paused()": "2432",
            "pricePerItem()": "285",
            "renounceOwnership()": "28162",
            "safeTransferFrom(address,address,uint256)": "infinite",
            "safeTransferFrom(address,address,uint256,bytes)": "infinite",
            "setActiveLevel(uint256)": "26690",
            "setApprovalForAll(address,bool)": "infinite",
            "setBaseURI(string)": "infinite",
            "setPaused(bool)": "26715",
            "supportsInterface(bytes4)": "612",
            "symbol()": "infinite",
            "tokenByIndex(uint256)": "2523",
            "tokenOfOwnerByIndex(address,uint256)": "infinite",
            "tokenURI(uint256)": "infinite",
            "totalItems()": "2429",
            "totalSupply()": "2360",
            "transferFrom(address,address,uint256)": "infinite",
            "transferOwnership(address)": "28466",
            "updateLevel(uint256,bool,string)": "infinite",
            "withdraw()": "infinite"
        },
        "internal": {
            "_baseURI()": "infinite",
            "canMintWithAnswer(uint256,bytes32,uint256)": "infinite",
            "isContract(address)": "infinite",
            "isEmpty(string memory)": "infinite"
        }
    }
}